:100000000C9483000C94B4000C94B4000C94B400D1
:100010000C94B4000C94B4000C94B4000C94B40090
:100020000C94B4000C94B4000C94B4000C94B40080
:100030000C94B4000C94B4000C94B4000C94B40070
:100040000C94B4000C94B4000C94B4000C94B40060
:100050000C94B4000C94B4000C94B4000C9473028F
:100060000C94B4000C94E7020C94BD020C94B40000
:100070000C94B4000C94B4000C94B4000C94B40030
:100080000C94B4000C94B4000C94B4000C94B40020
:100090000C94B4000C94B4000C94B4000C94B40010
:1000A0000C94B4000C94B4000C94B4000C94B40000
:1000B0000C94B4000C94B4000C94B4000C94B400F0
:1000C0000C94B4000C94B4000C94B4000C94B400E0
:1000D0000C94B4000C94B4000C94B4000C94B400D0
:1000E0000C94B4000C945F010C9400050C9427014F
:1000F0000C94AC010C94F6000C9405010C941901BD
:100100000C94C900000511241FBECFEFD1E2DEBF61
:10011000CDBF00E00CBF12E0A0E0B2E0EEE5F0E100
:1001200000E00BBF02C007900D92AE33B107D9F7C4
:1001300022E0AEE3B2E001C01D92A43EB207E1F7B7
:1001400010E0C3E8D0E000E006C021970109802F4D
:10015000FE010E944F05C238D10780E00807A9F7C9
:100160000E941D030C942D080C94000082B99093FA
:1001700008018CEC81BBEBE0F1E082E0808383E25C
:1001800090E0DC011197F1F727E020830197F1F768
:100190000895AF92BF92CF92DF92EF92FF920F93AA
:1001A0001F93CF93DF936C017B018B01040F151F0D
:1001B000EB015E01AE18BF08C017D10759F0699175
:1001C000D601ED91FC910190F081E02DC6011995C9
:1001D000892B79F7C501DF91CF911F910F91FF9086
:1001E000EF90DF90CF90BF90AF900895FC01538DBA
:1001F000448D252F30E0842F90E0821B930B541701
:1002000010F0CF96089501970895FC01918D828D8D
:10021000981761F0A28DAE0FBF2FB11D5D968C9126
:10022000928D9F5F9F73928F90E008958FEF9FEF65
:100230000895FC01918D828D981731F0828DE80F21
:10024000F11D858D90E008958FEF9FEF0895FC01DB
:10025000918D228D892F90E0805C9F4F821B9109A8
:100260008F739927089587E492E00E94270121E087
:10027000892B09F420E0822F0895FC01A48DA80F9A
:10028000B92FB11DA35ABF4F2C91848D90E00196D8
:100290008F739927848FA689B7892C93A089B189F8
:1002A0008C91837080648C93938D848D981306C099
:1002B0000288F389E02D80818F7D80830895EF92FD
:1002C000FF920F931F93CF93DF93EC0181E0888F10
:1002D0009B8D8C8D98131AC0E889F989808185FFE0
:1002E00015C09FB7F894EE89FF896083E889F98982
:1002F00080818370806480839FBF81E090E0DF9184
:10030000CF911F910F91FF90EF900895F62E0B8DD6
:1003100010E00F5F1F4F0F731127E02E8C8D8E1191
:100320000CC00FB607FCFACFE889F989808185FFF8
:10033000F5CFCE010E943D01F1CFEB8DEC0FFD2FEB
:10034000F11DE35AFF4FF0829FB7F8940B8FEA89B3
:10035000FB8980818062CFCFCF93DF93EC01888DC2
:100360008823B9F0AA89BB89E889F9898C9185FD30
:1003700003C0808186FD0DC00FB607FCF7CF8C91BE
:1003800085FFF2CF808185FFEDCFCE010E943D0138
:10039000E9CFDF91CF91089580E090E0892B29F09B
:1003A0000E94330181110E94000080E090E0892BBF
:1003B00049F080E090E0892B29F00E940000811133
:1003C0000E94000080E090E0892B49F080E090E0FE
:1003D000892B29F00E94000081110E94000080E01A
:1003E00090E0892B49F080E090E0892B29F00E9471
:1003F000000081110C940000089582B990930801C7
:10040000ABE0B1E081E08C93E3E2F0E0CF01019753
:10041000F1F78FB197E09C933197F1F7089582B986
:1004200081E080930801ABE0B1E085E08C93E3E2EA
:10043000F0E0CF010197F1F78FB197E09C933197EE
:10044000F1F70895FC0101900020E9F73197AF0121
:10045000481B590BBC0187E492E00C94C9008F92B1
:100460009F92AF92BF920F931F93CF93DF93CDB71D
:10047000DEB7A1970FB6F894DEBF0FBECDBF19A2AD
:10048000423008F44AE08E010F5D1F4F842E912CFC
:10049000B12CA12CA50194010E942D05E62FB901D4
:1004A000CA01EA30F4F4E05DD801EE938D01232B0C
:1004B000242B252B79F790E080E0109719F0CD01DF
:1004C0000E942202A1960FB6F894DEBF0FBECDBFE8
:1004D000DF91CF911F910F91BF90AF909F908F9020
:1004E0000895E95CE1CF1F920F920FB60F9211248D
:1004F0002F933F938F939F93AF93BF93809143022A
:1005000090914402A0914502B0914602309142027E
:1005100023E0230F2D3758F50196A11DB11D20931F
:1005200042028093430290934402A0934502B09309
:10053000460280913E0290913F02A0914002B0910C
:1005400041020196A11DB11D80933E0290933F028E
:10055000A0934002B0934102BF91AF919F918F91C0
:100560003F912F910F900FBE0F901F90189526E886
:10057000230F0296A11DB11DD2CF1F920F920FB66D
:100580000F9211240BB60F922F933F934F935F93CB
:100590006F937F938F939F93AF93BF93EF93FF934B
:1005A00087E492E00E943D01FF91EF91BF91AF91EE
:1005B0009F918F917F916F915F914F913F912F917B
:1005C0000F900BBE0F900FBE0F901F9018951F92AB
:1005D0000F920FB60F9211240BB60F922F938F9399
:1005E0009F93EF93FF93E0915702F091580280811F
:1005F000E0915D02F0915E0282FD1DC090818091CC
:1006000060028F5F8F7320916102821741F0E09149
:100610006002F0E0E95BFD4F958F80936002FF91EF
:10062000EF919F918F912F910F900BBE0F900FBE66
:100630000F901F9018958081F2CFCF93DF93CDB7A5
:10064000DEB760970FB6F894DEBF0FBECDBF7894CB
:1006500084B5826084BD84B5816084BD85B58260C7
:1006600085BD85B5816085BD80916E008160809378
:100670006E001092810080918100826080938100E1
:1006800080918100816080938100809180008160F1
:10069000809380008091B10084608093B10080914C
:1006A000B00081608093B00080919100826080935F
:1006B00091008091910081608093910080919000E1
:1006C0008160809390008091A10082608093A1005E
:1006D0008091A10081608093A1008091A000816041
:1006E0008093A000809121018260809321018091FC
:1006F000210181608093210180912001816080939C
:10070000200180917A00846080937A0080917A0041
:10071000826080937A0080917A00816080937A0071
:1007200080917A00806880937A001092C100E091F5
:100730005702F091580282E08083E0915302F091D9
:1007400054021082E0915502F09156028FEC8083A2
:1007500010925F02E0915B02F0915C0286E0808380
:10076000E0915902F0915A02808180618083E0918A
:100770005902F0915A02808188608083E091590289
:10078000F0915A02808180688083E0915902F09153
:100790005A0280818F7D80838FEF81B9809307011A
:1007A00010BA87E080930A0110920B0112B81092E0
:1007B000080180E091E00E940F0281E091E00E9438
:1007C0000F0282E091E00E940F0283E091E00E941C
:1007D0000F0204E011E0780180E1E80EF11CC8018D
:1007E0000E940F020F5F1F4F0E151F05C1F7043344
:1007F00091E0190781F7C8010E940F020F5F1F4F98
:10080000043481E01807B9F784E491E00E940F02F4
:1008100085E491E00E940F0286E491E00E940F02BD
:1008200087E491E00E940F0288E491E00E940F02A9
:1008300089E491E00E940F028AE491E00E940F0295
:100840008BE491E00E940F028CE491E00E940F0281
:100850008DE491E00E940F028EE491E00E940F026D
:100860008FE491E00E940F0227E0E22EE0920B015C
:1008700003E210E0C8010197F1F7FF24FA94F0BAFF
:1008800012B8109208018AE081BB36E0D32ED092D4
:100890000B01C8010197F1F7E0920B01C801019724
:1008A000F1F7C8010197F1F710BA82E192E00E94D6
:1008B00022024AE060E070E0CB010E942F0282E257
:1008C00092E00E942202F0BA12B880E480930801FC
:1008D00011BAD0920B01C8010197F1F7E0920B0118
:1008E000C8010197F1F710BAF0BA00E010EAC801A8
:1008F0000E94B600C8010E94B600C8010E94B6005E
:100900000F5F1F4F011590EC190789F710BA85E2A8
:1009100092E00E9422024AE060E070E0CB010E9477
:100920002F0282E292E00E9422028FEF80BB12B877
:1009300080E48093080111BA86E080930B0183E282
:1009400090E0FC013197F1F727E020930B0101972C
:10095000F1F710BA00E010EACE0101967C0188E3BD
:10096000C82E82E0D82E91E3A92E92E0B92EC801BC
:100970008F7099270097E1F4C8010E94FD011F9232
:100980008F931F930F93BF92AF92FF92EF920E94AB
:100990005705C7010E9422020FB6F894DEBF0FBEB2
:1009A000CDBF0F5F1F4F011590EC190701F7FFCF67
:1009B0000F97C9F4C8010E94FD011F928F93DF9227
:1009C000CF92FF92EF920E945705C7010E94220228
:1009D00082E292E00E9422020F900F900F900F90FF
:1009E0000F900F90DECFC8010E94FD011F928F93E0
:1009F000DF92CF92FF92EF920E945705C701EACF94
:100A0000E7E4F2E01382128288EE93E0A0E0B0E027
:100A100084839583A683B78384E092E09183808367
:100A200085EC90E09587848784EC90E097878687B3
:100A300080EC90E0918B808B81EC90E0938B828BAB
:100A400082EC90E0958B848B86EC90E0978B868B84
:100A5000118E128E138E148E0895A1E21A2EAA1BE7
:100A6000BB1BFD010DC0AA1FBB1FEE1FFF1FA2175E
:100A7000B307E407F50720F0A21BB30BE40BF50B5B
:100A8000661F771F881F991F1A9469F760957095E4
:100A9000809590959B01AC01BD01CF010895EE0FAB
:100AA000FF1F881F8BBF0790F691E02D19940F93BD
:100AB0001F93CF93DF93CDB7DEB72E970FB6F89481
:100AC000DEBF0FBECDBF0E891F8986E08C831A83DF
:100AD00009838FEF9FE79E838D83AE01465E5F4F54
:100AE000688D798DCE0101960E9487052F8138850A
:100AF000020F131FF80110822E960FB6F894DEBF76
:100B00000FBECDBFDF91CF911F910F9108952F920E
:100B10003F924F925F926F927F928F929F92AF928D
:100B2000BF92CF92DF92EF92FF920F931F93CF93DA
:100B3000DF9300D000D000D01F921F92CDB7DEB758
:100B40007C013B018A01FC0117821682838181FFAF
:100B5000DDC1CE0101965C01F7019381F30193FDA4
:100B6000859193FF81913F01882309F453C1853218
:100B700039F493FD859193FF81913F01853229F4EA
:100B8000B70190E00E949F07E7CF912C212C312CD8
:100B9000FFE1F31538F08B3211F190F4803209F156
:100BA000833229F137FC3CC020ED280F2A3050F564
:100BB00036FE20C08AE0989E200D1124922E06C099
:100BC0008D3291F0803371F7689430F8F30193FD22
:100BD000859193FF81913F018111DACF21C0689403
:100BE00031F8689432F8F2CF689433F8EFCF689414
:100BF00034F8ECCFEAE02E9E200D1124222E6894CA
:100C000035F8E4CF8E3229F436FC04C1689436F806
:100C1000DDCF8C3619F4689437F8D8CF8836B1F226
:100C2000982F9F7D95549330E0F08336A1F1833760
:100C3000C1F1833509F063C02801F2E04F0E511C69
:100C4000F801C080D180692D70E036FC02C06FEFE2
:100C50007FEFC6010E9489074C01689437F8820132
:100C60000AC00C5F1F4FFFE3F98388248394912C03
:100C70006501E89437F833FE2DC0522C811491049D
:100C800071F5552009F468CFB70180E290E00E9429
:100C90009F075A94F6CFF801808189830E5F1F4F1A
:100CA000E4CF2801F2E04F0E511CF801C080D18042
:100CB000692D70E036FC02C06FEF7FEFC6010E9425
:100CC00094074C018201D5CFB70180E290E00E94E9
:100CD0009F072A942814190409F0B0F7CECFF60123
:100CE00037FC859137FE81916F01B70190E00E943A
:100CF0009F0751105A94F1E08F1A9108BFCF8436A4
:100D000019F0893609F077C0F80137FE6BC06081B1
:100D10007181828193810C5F1F4FF32DFF763F2EEF
:100D200097FF09C090958095709561957F4F8F4F83
:100D30009F4F689437F82AE030E0A5010E94CF0762
:100D4000C82ECA188C2C432C36FE0CC0E89440F8F0
:100D5000C91440F434FE05C032FC03C0F32DFE7EFE
:100D60004F2E892C44FEAAC0FE01EC0DF11D80819E
:100D7000803309F09CC0242D297E422E842D88705A
:100D8000582E43FCAAC040FEA4C09C2C821418F428
:100D90002C0C922C981844FEA6C0B70180E390E07A
:100DA0000E949F0742FE09C088E790E041FE02C012
:100DB00088E590E0B7010E949F07C91408F49FC01E
:100DC000CA94D12C9FEFC91AD90ACA0CDB1CF601B0
:100DD00082916F01B70190E00E949F07AC14BD049F
:100DE000B1F74FCF60817181072E000C880B990BF2
:100DF0000E5F1F4F92CFD32CE894D4F82AE030E056
:100E00008537E1F1232D297FD22E8F36A9F1F0F419
:100E1000883551F1F701868197812B960FB6F894AA
:100E2000DEBF0FBECDBFDF91CF911F910F91FF901D
:100E3000EF90DF90CF90BF90AF909F908F907F907A
:100E40006F905F904F903F902F900895803749F0BA
:100E5000883701F7D4FE02C06894D2F820E130E070
:100E60000DC06894D4F8F6CF34FE03C0822F86609C
:100E7000D82E20E132E002C028E030E0F801D7FEB1
:100E80000FC060817181828193810C5F1F4FA5012A
:100E90000E94CF07C82ECA183D2CE89437F852CFCD
:100EA0006081718190E080E00E5F1F4FF0CF42FCC7
:100EB00002C0839463CF8394839460CF842D86781B
:100EC00009F45CCFF6CFB70180E290E00E949F0763
:100ED00083948214C0F3512C5ECF522C5818821484
:100EE00008F459CFF8CF842D867809F466CF8BE2C9
:100EF00041FE80E247FC8DE2B70190E05CCFB70194
:100F000080E390E00E949F079A9457CF8FEF9FEF66
:100F100084CFFC010590615070400110D8F7809596
:100F200090958E0F9F1F0895FC01615070400190B5
:100F30000110D8F7809590958E0F9F1F08950F93FD
:100F40001F93CF93DF93182F092FEB018B8181FD26
:100F500009C01FEF0FEF812F902FDF91CF911F91CD
:100F60000F91089582FF14C02E813F818C819D8155
:100F7000281739073CF4E881F981CF01019699835C
:100F8000888310838E819F8101969F838E83E3CF18
:100F9000E885F985812F1995892BA1F3DACFFA011C
:100FA000AA27283051F1203181F1E8946F936E7FA8
:100FB0006E5F7F4F8F4F9F4FAF4FB1E03ED0B4E099
:100FC0003CD0670F781F891F9A1FA11D680F791FDA
:100FD0008A1F911DA11D6A0F711D811D911DA11DEB
:100FE00020D009F468943F912AE0269F11243019FB
:100FF000305D3193DEF6CF010895462F4770405D96
:101000004193B3E00FD0C9F7F6CF462F4F70405D44
:101010004A3318F0495D31FD4052419302D0A9F79F
:10102000EACFB4E0A6959795879577956795BA9599
:10103000C9F700976105710508959B01AC010A2E5F
:1010400006945795479537952795BA95C9F7620F36
:0E105000731F841F951FA01D0895F894FFCFF5
:10105E00000000005F01C900F600AC012701050188
:10106E00190177726974652072616D2062616E6B11
:10107E0020000D0A0072616D2062616E6B203A20B5
:0E108E000025303458203A20253032582000FA
:00000001FF
